:020000040800F2
:10000000E808002085020008890200088B02000829
:100010008D0200088F020008910200080000000015
:100020000000000000000000000000009302000833
:1000300095020008000000009702000899020008DD
:100040009B0200089B0200089B0200089B0200081C
:100050009B0200089B020008CB0A00089B020008D4
:100060009B0200089B0200089B0200089B020008FC
:100070009B0200089B0200089B0200089B020008EC
:100080009B0200089B0200089B0200089B020008DC
:100090009B0200089B0200089B0200089B020008CC
:1000A0009B0200089B0200089B0200080F17000833
:1000B0005D0A0008811100089B0200089B020008ED
:1000C0009B0200089B0200089B0200089B0200089C
:1000D0009B020008F3060008810800089B02000844
:1000E0009B0200089B0200089B0200089B0200087C
:1000F0009B0200089B0200089B0200089B0200086C
:100100009B0200089B0200081D1A00089B020008C1
:100110009B0200089B0200089B0200089B0200084B
:100120009B0200089B0200089B0200089B0200083B
:1001300000F002F800F090F80AA090E8000C824469
:100140008344AAF10107DA4501D100F085F8AFF246
:10015000090EBAE80F0013F0010F18BFFB1A43F0A5
:10016000010318473442000054420000103A24BFF3
:1001700078C878C1FAD8520724BF30C830C144BF0C
:1001800004680C607047000000230024002500264E
:10019000103A28BF78C1FBD8520728BF30C148BFEA
:1001A0000B6070476E2901F02587702902F0798075
:1001B000662904F08280652904F07F80672904F0B5
:1001C0007C806129AFF3008003681B0A28BF41F0DF
:1001D0008001692901F0D286642901F0CF86752952
:1001E00001F0CC866F2902F00680782902F0458064
:1001F000E92901F0A187E42901F09E87F52901F0A2
:100200009B87EF2902F00380F82902F044800368FD
:10021000DB0928BF41F08001632902F0C8837329FC
:1002200002F0CD83E32902F0D883F32902F0DD83C5
:10023000002070471FB502F02DFC040000200021B3
:1002400003F026F9401C60600020002103F00AF949
:10025000E0601FBD10B510BD02F0EFFB1146FFF7C7
:10026000E9FF00F02BF802F0CBFC03B4FFF7F2FF3C
:1002700003BC00F02FFA000030BF72B662B680F304
:100280000888704708480047FEE7FEE7FEE7FEE7FC
:10029000FEE7FEE7FEE7FEE7FEE7FEE70348044968
:1002A000044A054B7047000031010008E8020020B5
:1002B000E8080020E8040020E8040020092000F0FD
:1002C000B0F9482000F050F800F0D0FE00F0F0FB4C
:1002D00001F08FFA00F0F0FF00F016FF41F61F4129
:1002E00041F2873000F028FF01F0FFF900F038FEFE
:1002F00000214FF4FA5000F051FC01F001FD1848C4
:10030000007801F0E9F829E00A2000F065F81548C6
:100310000078012801D100F00BFC11480078072873
:1003200018D2DFE800F00405080B0E11140011E0EC
:1003300000F097FD0EE001F0CBFA0BE001F030F990
:1003400008E000F025FE05E001F051FC02E001F0BC
:10035000DEFC00BF00BF002001490870D4E70000A8
:1003600001000020000000204FF0E021096921F089
:1003700004014FF0E0221161C21700EB5272C2F388
:10038000C702234B1A701946097801EB4102C2EBF0
:10039000C1114FF6FF7202EAC1011E4A1180704777
:1003A00001461B4A12784A434FF0E0235A6100226B
:1003B0009A6101221A6100BF4FF0E022106900F03B
:1003C00001021AB100F48032002AF5D000224FF069
:1003D000E0231A619A61704701460E4A12884A4327
:1003E0004FF0E0235A6100229A6101221A6100BF96
:1003F0004FF0E022106900F001021AB100F48032DF
:10040000002AF5D000224FF0E0231A619A6170476C
:100410000200002004000020A34A0A400243A34B2C
:100420001A6070470146072323EA010212029F4B1C
:100430001B1D18684FF6FF0318409D4B18431043CF
:100440009A4B1B1D186070472DE9F04107468846FE
:1004500014461D462846FFF7E5FFC5F1040007FADC
:1004600000F60F20284100EA0800064306F00F06B8
:10047000E21704EBD2625211920002F1E022D2F8AC
:1004800000212146E31704EBD3635B11A4EB431C6B
:10049000012303FA0CF31A432046E31704EBD3635A
:1004A0005B119B0003F1E023C3F800218148005D4C
:1004B00040EA06107F490855BDE8F08170B5044652
:1004C0000B46CE1701EB9676C6F38700CE1701EBED
:1004D0009676B610A1EB8606B606350E764B9B696E
:1004E00043F00103744EB3614FEAB63353F8203042
:1004F0000F26AE40B343714E46F82030334653F8D2
:10050000203004FA05F61E436C4B43F820606C4B18
:100510001B6801268E403343694E336002F00103AD
:1005200043B1674B0C331B6801268E403343644E46
:100530000C36336002F0020343B1614B08331E688E
:1005400001238B401E435E4B08331E6070BD00B517
:10055000002059490861C860142048610020886162
:10056000C8610846006840F001000860084640681D
:1005700054490840504948600846006852490840BC
:100580004D4908600846006820F48020086008464D
:10059000406820F4FE0048600020886000214FF091
:1005A0000060FFF739FF00BD10B540480830006813
:1005B00040F004003D49083108603F48C06940F000
:1005C00080503D49C8614148406840F480703F49CF
:1005D00048600846006840F004000860084600686B
:1005E00040F002000860FFF747FE10BD3048001DD4
:1005F0002E49091D08607047014649062E4A926936
:1006000042F001022C4B9A612C4A083A526822F0BF
:10061000E0622A4B083B5A601A4652680A435A6005
:10062000704730B504460025FFF791FF2248006867
:1006300040F480302049086000BF1F480068400C2B
:100640000028FAD04FF480601B494860A01EC4B255
:100650000846406840EA844048600846406840F4E4
:10066000803048601A48006840F03200184908603D
:100670001148006840F080700F49086000BF0E48C4
:100680000068400E0028FAD00B48406840F0020095
:100690000949486005E008484068C0F3870505F04F
:1006A0000305022DF7D130BD80FFFF1F08ED00E0EC
:1006B0000000FA0500E400E00010024008000140DC
:1006C000000401400000FFF8FFFFF6FE007000404C
:1006D00000200240014600BF704700BF584A128800
:1006E00002F04002002AF9D0C2B2554B1B1D1A80FD
:1006F00070475349098801F0200111B35049091D81
:100700000988C8B24F49098801F40041C9B94D4967
:10071000098801F4804161B10A2803D00021494AC7
:10072000118020E04749098841F40041454A118081
:1007300019E00D2806D14349098841F48041414A16
:10074000118010E03F490988C1F30D013E4A505421
:100750003C490988491C3B4A118011460988C72930
:1007600001DD0021118070472DE9F05F05460E463E
:10077000300103F043FC8146344905FB01F003F0EE
:100780003DFC8246494603F057FB0746384603F0D6
:1007900015FC84B2204603F031FC8346394603F051
:1007A0000DFD82464FF0834103F03CFC814603F08F
:1007B00005FC80464FF6FF7000EA041404EB0800C5
:1007C00084B22348806940F00400214988610846CA
:1007D000806940F4804088611E48006820F47F6092
:1007E0001C4908600846006840F40B60086018481F
:1007F000C06840F480401649C8600846C06820F4CC
:100800008040C8600E4808300480001D008842F215
:100810000C0108430A490C3108800846008840F45E
:10082000807008800846008840F02000088002237D
:10083000252203210846FFF707FEBDE8F09F0000D0
:10084000003801400C0000202000002040420F0032
:10085000001002400408014048B100214FF08042DE
:1008600091841146098841F00101118007E04FF0A1
:100870008041098821F001014FF0804211807047CA
:1008800000B58348008800F0200000B38048001DB8
:100890000088C3B27F480088C82812DA00204FF0D1
:1008A000804188847B48008810B90120FFF7D4FF7D
:1008B000784801880088401C764A10807648435466
:1008C00005E07448008840F400407249088000BD8B
:1008D00070B505460C467148C06940F001006F498B
:1008E000C861880485850485808940F001008904F9
:1008F00088810846008840F00100088002231C22FD
:1009000003210120FFF7A0FD70BD70B504460E461F
:1009100015466248406940F0010060494861052081
:10092000FFF73EFDA660E56000202060206840F0F3
:10093000100020602068206020682060206840F05F
:10094000800020602068206020682060206840F4DB
:10095000805020602068206070BD70B505460C4650
:100960004E48806940F004004C4988614C4800685A
:1009700020F47F404A4908600846006840F40B4074
:1009800008604648C06940F400304449C8610846E0
:10099000006940F4003008610846006920F4003026
:1009A000086140486843B0FBF4F0394908310880D9
:1009B000081D008842F20C01084335490C310880BB
:1009C0008020334914310880374A3149091D37489E
:1009D000FFF79BFF2E480C30008840F480702C49B4
:1009E0000C3108800846008840F02000088002236F
:1009F000262203211846FFF727FD41F61F416320F9
:100A0000FFF766FF002023490880FFF725FF70BD30
:100A1000026822F0010202604160026842F00102B5
:100A2000026070470FB438B505A800901E48009AC0
:100A3000049901F0FFF90020009000BF1B48001D41
:100A400000680028FAD1184801F012FA84B2214651
:100A50001648FFF7DDFF38BC5DF814FB00B54FF01A
:100A60008040008A00F0010080B10A48008840F40C
:100A70000040084908804FF08040008A20F00100C3
:100A80004FF0804108820020FFF7E6FE00BD000025
:100A9000004400400E000020B00100200010024081
:100AA0000008014040420F00E800002080000240A2
:100AB00010B5022200210846FFF700FD022306229E
:100AC00019461846FFF7C0FC10BD10B50A20FFF705
:100AD00083FC2C48006801280AD10A2100F072FE2C
:100AE0002948007808B9012000E000202649087054
:100AF00001202649086010BD10B5044614B101203C
:100B0000234908702248007850B12248006838B95B
:100B10000A20FFF761FC00201D490870012010BD6C
:100B20001C480068012801D1194908700020F6E727
:100B300070B50024204600F0CFFC16E00020FFF73F
:100B4000DBFF01280ED10A2100F03CFE601CC4B27C
:100B5000072094FBF0F100FB1140C5B2284600F0DD
:100B6000BBFC02E00A20FFF737FC074800780128A9
:100B7000E4D0072094FBF0F100FB11400649087017
:100B800070BD00000001214200000020140401405B
:100B9000100000201401224201000020824AD26984
:100BA00042F00402804BDA611A46926942F0080270
:100BB0009A617E4A126802F47F027C4B1A601A46E0
:100BC00012687B4B1A43794B1A607A4A1080121FC5
:100BD0001180784A143A128842F06002754B143B37
:100BE0001A801A46128842F4C0421A801A461288A5
:100BF00042F008021A801A46128842F400621A80F3
:100C00006C4A0C3A128842F001026A4B0C3B1A8083
:100C10001A46128842F010021A80664A2C3A12884C
:100C200042F08002634B2C3B1A801A46128842F035
:100C300001021A80704710B5012828D121B101297D
:100C40000CD0022922D115E000235B4C23605B4CC1
:100C5000C4F88031574B08331A8017E00123564CF3
:100C6000241F23600023554CC4F88431514B0833B2
:100C70001A800BE00023504C241F236001234F4CAB
:100C8000C4F884314B4B08331A8000BF2BE0022894
:100C900029D121B101290DD0022923D116E0002349
:100CA000454C08342360454CC4F88831414B0C3323
:100CB0001A8017E00123404C241D236000233F4C81
:100CC000C4F88C313B4B0C331A800BE000233A4CB8
:100CD000241D23600123394CC4F88C31354B0C336F
:100CE0001A8000BF00BF10BD70B506460C46154601
:100CF000072E56D2DFE806F0040F1A25313D4900D1
:100D0000224600210120FFF796FF22460021022003
:100D1000FFF791FF45E0224601210846FFF78BFFD0
:100D2000224601210220FFF786FF3AE022460221F7
:100D30000120FFF780FF224602210846FFF77BFFD4
:100D40002FE0224601210846FFF775FF601982B2A5
:100D500001210220FFF76FFF23E0601982B2012119
:100D60000846FFF768FF224601210220FFF763FFD4
:100D700017E0224602210120FFF75DFF601982B2D1
:100D800002210846FFF757FF0BE0601982B20221EB
:100D90000120FFF750FF224602210846FFF74BFFD4
:100DA00000BF00BF70BD000000100240000C0140F9
:100DB000333300BB2C080040848121420080214253
:100DC00010B5002443E007E00120FFF705FB0022F7
:100DD00021460120FFF788FF2046611C8CB2B0F548
:100DE000FA5F03DA5D4800780028EDD0A4F57A6058
:100DF00081B24FF47A620320FFF776FF4FF4FA6076
:100E0000FFF7EAFAA4F57A6081B24FF47A6204201F
:100E1000FFF76AFF4FF4FA60FFF7DEFA002407E0FD
:100E20000120FFF7D9FA002221460220FFF75CFFDC
:100E30002046611C8CB2B0F5FA5F03DA47480078AF
:100E40000028EDD0002441F28830FFF7C5FA43486E
:100E500000780028B7D0002211461046FFF744FF63
:100E600010BD10B500246FE00CE0224601210846B9
:100E7000FFF7E1FE224602210846FFF7DCFE0120D3
:100E8000FFF7AAFA2046611C8CB2B0F5FA5F03DACC
:100E9000324800780028E8D04FF4FA60FFF79CFA57
:100EA0000CE0224601210846FFF7C5FE224602213A
:100EB0000846FFF7C0FE0120FFF78EFA2046611EAC
:100EC0008CB2B0F5FA7F03DD244800780028E8D022
:100ED0006421022000F076FC0CE022460221012071
:100EE000FFF7A9FE224601210220FFF7A4FE012000
:100EF000FFF772FA2046611C8CB2B0F5FA5F03DA94
:100F0000164800780028E8D04FF4FA60FFF764FA3A
:100F10000CE0224602210120FFF78DFE224601212E
:100F20000220FFF788FE0120FFF756FA2046611ED7
:100F30008CB2B0F5FA7F03DD084800780028E8D0CD
:100F40006421022000F03EFC0448007800288BD089
:100F5000002211461046FFF7C7FE10BD000000201A
:100F60003D48806940F008003B4988613B48006883
:100F700020F47F00394908600846006840F4080002
:100F80000860081D006820F47F00091D0860704794
:100F900010B557E032480068C0003249D1F8281136
:100FA000042202FB01002E4908390968022202FBD3
:100FB00001002C49D1F82011012202FB010009286F
:100FC00038D2DFE800F0050F16371E3726372D0020
:100FD000002240F6AC510120FFF786FEC820FFF743
:100FE000FBF92EE041F27C5200210420FFF77CFE49
:100FF00027E041F2941240F2DC510420FFF774FE26
:101000001FE041F2941240F2DC510320FFF76CFE26
:1010100017E0002240F2DC510120FFF765FE10E0EE
:1010200041F27C5200210320FFF75EFEC820FFF74B
:10103000D3F906E0002240F2DC510120FFF754FE14
:1010400000BF00BF084800780028A3D00022114646
:101050001046FFF749FE10BD00100240040C01408D
:101060002C812142008021420000002010B523483D
:10107000806940F00400214988610846806940F099
:10108000100088610220FFF7B7FA1D48006820F4BD
:1010900070001B4908600846006840F400000860C2
:1010A0000846C06840F02000C8601648006820F07C
:1010B0007040144908600846006840F0004008602D
:1010C00010480830006840F400400E4908310860BC
:1010D0000C48001F006820F00F000A49091F086033
:1010E0000846006840F008000860064808300068BC
:1010F00060F0010003490831086010BD0010024093
:1011000000100140040801406448806940F010006C
:10111000624988616248406820F0FF006049486089
:101120000846406840F03300486001205D4908608F
:101130005D49C1F8A001704770B505460C46574897
:10114000C06940F002005549C86158480580001F39
:10115000048056482038008840F001005349203967
:10116000088002231D2203211846FFF76DF94F481E
:101170002C38008840F001004C492C39088070BDA3
:101180004A481C38008800F0010000287DD04848FB
:101190000078002846D147480078002842D04148CE
:1011A000001F00684049D1F8A41100EB410030B1A4
:1011B000012809D002281BD0032832D12CE00120BD
:1011C0003849091F08602CE03648001F006808B93C
:1011D000012000E000203349091F08603248D0F8A0
:1011E000A40108B9012000E000202E49086018E0A1
:1011F0002C48001F006808B9012000E000202949A0
:10120000091F08602848D0F8A40108B9012000E0AF
:1012100000202449086004E000202249091F0860DA
:1012200000BF32E022480078012805D11D4908603E
:101230001D49C1F8A00128E01A48001F00681A499A
:10124000D1F8A41100EB410030B101280BD00228E5
:101250000ED0032818D110E001201249086012496D
:10126000C1F8A00110E000200E49091F08600BE042
:1012700001200C49091F086006E0002009490860A8
:101280000949C1F8A00100BF00BF08481C38008808
:1012900020F0010005491C39088070470010024009
:1012A00000100140A4012242000022422C04004010
:1012B000000000200100002010B59848806940F02F
:1012C0000400964988610846806940F008008861FA
:1012D0009348006880B292490860084600689149C6
:1012E00008438F4908609048006820F47F008E49C9
:1012F00008600846006840F44C1008608848001DEB
:10130000006820F00F008649091D08600846006843
:1013100040F003000860002084490860091F08604D
:10132000091F0860091F0860091F086080490860DC
:101330008049C1F89001FA20FFF74EF801207B495F
:101340000860091F0860091F0860091F0860091F5D
:101350000860774908607749C1F89001FA20FFF7E3
:101360003BF8002071490860091F0860091F0860E8
:10137000091F0860091F08606D4908606D49C1F8C0
:101380009001FA20FFF728F8012068490860091F3A
:101390000860091F0860091F0860091F0860644988
:1013A00008606449C1F8900110BD00206049091F20
:1013B000086001205F49C1F8940100205B491039A1
:1013C0000860091D0860091D0860091D0860091DE5
:1013D0000860704700205649091F086001205549E0
:1013E000C1F894010020514910390860091D0860B6
:1013F0000120091D08600020091D0860091D086002
:10140000704701204A49091F086000204949C1F876
:1014100094014649103908600120091D0860091D22
:1014200008600020091D0860091D08607047002041
:101430003F49091F08603F49C1F894013B491039F1
:101440000860091D08600120091D0860091D086069
:101450000020091D0860704700203549091F0860F9
:101460003449C1F894010120304910390860002046
:10147000091D0860091D08600120091D0860002081
:10148000091D0860704701202949091F08600020D4
:101490002849C1F894012549103908600120091D27
:1014A0000860091D0860091D0860091D0860704773
:1014B00000201F49091F08601E49C1F894011B49FB
:1014C00010390860091D0860091D0860091D0860C1
:1014D0000120091D0860704700B50246072A1AD28C
:1014E000DFE802F004070A0D10131600FFF7E0FF13
:1014F00011E0FFF7C8FF0EE0FFF7AEFF0BE0FFF7CC
:1015000096FF08E0FFF77DFF05E0FFF763FF02E0CD
:10151000FFF74BFF00BF00BF00BD70470010024047
:101520000008014000003333000C0140A0012142BB
:10153000948121420080214200209949888088704E
:101540004870087070472DE9F04795498A88897876
:1015500002EB014002F00FFA8046924A924B02F0F1
:1015600021FA064600224FF0804302F04FF804466D
:1015700002F0D4F982465046BDE8F08788480078EA
:10158000704710B500208949086001208849C1F8DA
:10159000B0011020FEF704FF00208449086010BD50
:1015A00010B525E0FFF7EDFFFFF7E8FFD0B1FFF73B
:1015B000CAFF142814D87A48807800F0010030B1AE
:1015C0004FF47A62511E0620FFF78EFB05E04FF4C0
:1015D0007A62511E0520FFF787FB6420FEF7FCFEB0
:1015E000FFF7AAFF002241F658310120FFF77CFBEC
:1015F000704800780028D5D0002211461046FFF729
:1016000073FBFFF799FF10BD6B48806940F0040041
:10161000694988616948006820F47020674908605A
:101620000846006840F44030086000205F490860C8
:1016300070476148806940F004005F4988615F48F5
:10164000006820F470405D4908600846006840F476
:10165000004008600020554984390860704770B523
:1016600004460D465448806940F400605249886140
:1016700053480480001F0580514810380088C0B2CC
:101680004F49103908800846008840F4807008806F
:10169000084600880880084600880880081D0088E1
:1016A00020F40050091D08800846008840F480504E
:1016B000088043482038008840F010004049203915
:1016C00008800846008840F0010008803C482C381B
:1016D000008840F001003A492C39088002231B227F
:1016E00000211846FEF7B0FE70BD10B5FFF78CFF65
:1016F000FFF79FFF47214FF6FF70FFF7B0FFFFF79F
:101700001BFF4FF416514820FFF72EF810BD00B50F
:101710002B481C3802882248007800283AD102F071
:10172000010090B11E48407878B11D488078FF28AC
:1017300006D101201A4908704FF6FF70888004E036
:1017400017488078401C1649887002F0100008B3D2
:101750001348407878B9FFF7EFFE01201049487030
:101760000020174908390880081F008840F40050FD
:10177000091F08800EE00120094908701048143044
:10178000008888800E480C38008820F400500C49EE
:101790000C39088000200A491C39088000BD00006F
:1017A000120000209CC420B07268A13FB001214209
:1017B0000000214200000020001002400408014007
:1017C0002C2C014070B504460D4600260EE0012089
:1017D00013490860FA20FEF7FFFD00201149C1F807
:1017E0009C012846FEF7F8FD701CC6B2A642EEDB4F
:1017F00070BD10B50C48806940F010000A4988613E
:101800000A48006820F070400849086008460068EF
:1018100040F040500860FA210220FFF7D3FF10BDCE
:101820009C012242000022420010024000100140B0
:101830002DE9F04F89B0FFF786FE8346BBF1C80F54
:1018400001DD4FF0C80BCBF10F0A00BF3F488068A5
:1018500050443E4988600846006848600846C0F821
:1018600000A0002002F087F8804689463749886842
:1018700002F081F806464FF06632354B02F092F8DE
:10188000CDE9000140F2A4610AFB01F002F073F817
:101890000446DDE9002301F011FE42464B46CDE946
:1018A000020101F00BFE00222A4BCDE9040101F0F8
:1018B000ADFECDE9060102F001F88346584609B0B5
:1018C000BDE8F08F002021498860486008607047BB
:1018D00010B50024FFF7F6FF2DE0FFF752FEFFF7EB
:1018E0004DFE20B1FFF7A4FF0446FFF725FE002CB4
:1018F0000FDB41F29410844201DD044603E0B4F5AD
:10190000487F00DA0024A1B200220220FFF7ECF9A0
:101910000EE01148844201DA044603E014F5487FE2
:1019200000DD0024604281B200220120FFF7DCF9D3
:101930000A20FEF751FD094800780028CDD000228A
:1019400011461046FFF7D0F910BD000078020020C4
:101950006666E63F0000F03F6CEEFFFF00000020EF
:1019600010B5DF48806940F00400DD498861DD483A
:10197000006820F0F000DB4908600846006840F08D
:1019800080000860D7480C30006840F00200D5495C
:101990000C310860D248C06940F00800D049C861E5
:1019A00042F21070D04908804720091F0880CE48B5
:1019B0001438008840F48070CB49143908800846F8
:1019C000008840F440500880084600880880C648D7
:1019D0000C380088C4490C3908800846008840F05B
:1019E00010000880C0482038008840F00400BE493C
:1019F000203908800846008840F001000880BA4875
:101A00002C38008840F00100B7492C3908800223A7
:101A1000322203210120FEF717FD10BDB2491C3907
:101A2000088800F00101F9B1B049097801F080019E
:101A3000D1B1AE49097821F01001AC4A11701146BC
:101A4000097801F00F0121B91146097841F04001F0
:101A50001170A649097801F00F010E2905DAA34992
:101A60000978491CA14A11700AE0A049097821F0BF
:101A700080019E4A11701146097801F0F001117041
:101A800000F00401002913D09949096889B19649E9
:101A90000C39098841F02001934A0C3A1180002149
:101AA000121D11809149097841F010018F4A11707F
:101AB0006BE08D490C3109888E4A11808A490C39B6
:101AC000098821F02001884A0C3A11808749097859
:101AD00001F01001002952D08449097801F08001F9
:101AE000D1B384490988B1F5967F0DDD8149098814
:101AF000B1F5487F08DA8049096849007E4A1160DB
:101B00001146096811603AE07A490988B1F5AF6F6A
:101B10000FDD78490988B1F5E16F0ADA764909687D
:101B20004900754A11601146096841F001011160D0
:101B300025E07049098840F6980291421FDD6D4901
:101B4000098840F62822914219DA6849097801F09B
:101B5000F001664A117012E0FFE76649098841F218
:101B6000680291420BDD6349098841F25C2291428F
:101B700005DA5E49097841F080015C4A11705B49E1
:101B8000097821F01001594A11700021564A1C3A77
:101B90001180704710B5002000210022534B1B78A4
:101BA00003F0400313B3544B1B68190E524B1B68D0
:101BB000C3F30742D343DBB28B420BD151B94E4B37
:101BC0001B88C3F307214C4B1A78D343DBB28B42FB
:101BD00000D1084620B1454B1B7803F080032BB998
:101BE000424B1B7823F04003404C237010BD10B5CE
:101BF000FFF7B6FE69E0FFF7CDFF04465A2C55D03B
:101C00000BDC182C38D003DCA4B1102C59D13FE0E8
:101C1000302C2AD0382C54D141E0982C17D004DC39
:101C2000682C0DD07A2C4CD12BE0A22C45D0B02CB6
:101C300047D113E0002211461046FFF755F840E067
:101C400040F6C41211460420FFF74EF839E0002296
:101C500041F288310120FFF747F832E040F6C41224
:101C600011460320FFF740F82BE041F288320021B3
:101C70000420FFF739F824E00A210120FFF7A2FD34
:101C80001FE041F2883200210320FFF72DF818E011
:101C900040F6C41211460620FFF726F811E0002294
:101CA00041F288310220FFF71FF80AE040F6C41223
:101CB00011460520FFF718F803E001200F490870CE
:101CC00000BF00BF0A20FEF787FB0C480078002801
:101CD00091D0002211461046FFF706F810BD000013
:101CE00000100240000801402C0C004018000020A9
:101CF000040121421A0000201C00002000000020E6
:101D000010B54FF416512420FEF727FE10BD2DE923
:101D1000F041002400270025002671E03E4800889D
:101D200000F4004000286AD000203B490988C1F334
:101D30000E013A4A5054074604461046005D4028BA
:101D400003D037A000F088F85AE0601C04463349FD
:101D5000085C2D2802D1012007460444002507E035
:101D60002E48005D303805EB850100EB4105641C11
:101D70002A48005D2328F3D10FB16D420027601C73
:101D800004462649085C2D2802D101200746044458
:101D9000002607E02148005D303806EB860100EBA5
:101DA0004106641C1D48005D2428F3D107B176422A
:101DB0006D007600002D07DAC5F5487082B2022169
:101DC0000846FEF738FF06E005F5487082B20121AB
:101DD0000220FEF730FF002E07DAC6F5487082B207
:101DE00002210120FEF727FF06E006F5487082B2C7
:101DF00001210846FEF71FFF00200749088000BFA9
:101E00000A480078002889D0002211461046FEF7C3
:101E10006BFFBDE8F08100000E000020B001002043
:101E20004572726F725B315D00000000000000209F
:101E3000704700001CB50C46064B7B446946009079
:101E4000204600F0F0F804460020694600F0FEF855
:101E500020461CBD0F0200000FB4044910B503AAB0
:101E6000029800F0F9F810BC5DF814FB080000209F
:101E700010B5431C02E010F8011B71B18107FAD1C3
:101E80004FF0013202C88C1A8C4314EAC211F9D007
:101E9000C01A0A0603D0C01E10BDC01A10BD0A0425
:101EA00001D0801E10BD0902FCD0401E10BD70473D
:101EB00070477047704770B5044685690068C10671
:101EC00001D5302600E02026C00707D070BDD4E938
:101ED000012130469047206A401C20626D1EF6D5D5
:101EE00070BD70B5044685690078C00707D170BD24
:101EF000D4E9012120209047206A401C20626D1EF9
:101F0000F6D570BD09684A0501D540B27047C905CC
:101F1000FCD500B2704709684A0501D5C0B27047C8
:101F2000C905FCD580B2704770B50C460546012A3C
:101F300005D02878800600D5EA69002302E0012355
:101F400005E05B1C934202D2E05C0028F9D1A8694D
:101F5000E618C01AA861286A184428622846FFF7C4
:101F6000AAFF04E0D5E9012114F8010B9047B4421F
:101F7000F8D32846FFF7B5FF70BD00002DE9F0410A
:101F80000646002410687529314616A510D0FFF7C3
:101F9000B9FF002802DA404213A507E031688A073A
:101FA00001D512A502E0490704D511A5012401E0DD
:101FB000FFF7B1FF00210A2206F1240709E0B0FB78
:101FC000F2FCB0FBF2F302FB1C00303078541846F0
:101FD000491C0028F3D123462A463046BDE8F0418B
:101FE00000F073BA000000002D0000002B0000007C
:101FF0002000000011680268006A530501D50870CE
:102000000AE0D30501D5088006E0130603D5C21700
:10201000C1E9000200E008600120704701694A1C24
:1020200002610878704700B58FB0CDE90131002119
:10203000059105497944CDE903101146684600F041
:102040003BF90FB000BD0000E5FFFFFF0A6802F892
:10205000010B0A6070470000074B70B50D467B44CA
:10206000FFF7E1FF0446284600F0C3FC10B14FF033
:10207000FF3070BD204670BD79E6FFFF2DE9FF5FA0
:1020800015468A460446DFF8AC80F8440027D8E9B4
:1020900000103E46CDE9001010E03AF816106A46EE
:1020A00002A800F0AAFC411C07D02178890603D5BC
:1020B000E269391891420DD80744761C20788006D1
:1020C00002D5E069B84205DDAE42E6DB3AF816001B
:1020D0000028E2D1A069C01BA0612046FFF7EBFEFB
:1020E000D8E90010CDE90010002017E03AF81810E8
:1020F0006A4602A800F081FCB0F1FF3F81460BD098
:1021000000250DF1080B05E0D4E901211BF80500BD
:1021100090476D1C4D45F7D308F10100B042804651
:10212000E4DB206A384420622046FFF7DAFEBDE88F
:10213000FF9F0000322200002DE9F0418046D21DB1
:1021400022F007020025D2E90002F52915A614D0D5
:10215000011E72F1000106DA0023D0EB030063EBED
:10216000020211A608E0D8F800108B0701D50FA6CF
:1021700002E0490701D50EA601251146002408F109
:10218000240704E000F05CF930323A55641C50EA50
:102190000102F7D12B46324621464046BDE8F041C8
:1021A00000F093B9000000002D0000002B0000009B
:1021B0002000000030B4002100F1240408E002F007
:1021C0000705D208303542EA4372DB086554491CE2
:1021D00052EA0305F3D10468002310A2250707D5AE
:1021E000A40600D421B1C46901230DA2641EC461F8
:1021F00030BC00F06AB910B5044621461068FFF7FC
:102200008AFE02462046BDE810400023D2E7D21DD8
:1022100022F00701D1E90023CCE700000000000014
:1022200030000000F0B40D460188090502D5214CAC
:102230007C4402E01F4C7C440E34002100F1240653
:1022400008E002F00F071209E75D42EA03721B097A
:102250007754491C52EA0307F3D10278002312078E
:1022600004D5702D06D009B1022311342246F0BCEA
:1022700000F02BB901231034F8E770B504460D4681
:1022800021461068FFF747FE024629462046BDE872
:1022900070400023C6E7D21D22F00703D3E90023D4
:1022A000C0E70368126843F0200303600823C3619A
:1022B0000023B7E7942000002DE9F05F894604462B
:1022C0004FF0000ADFF874B1FB44C0F820A02046AC
:1022D000E1688847002874D0252806D0D4E9012178
:1022E0009047206A401C2062F1E700265F462046A6
:1022F000E16888472028054607DB312D05D278198B
:1023000010F8200C08B10643F1E7B00701D526F01C
:102310000406C4F81CA00027C4F818A02A2D09D070
:10232000284601F097F838B304EB8708303DC8F829
:10233000185019E059F8041B204604EB87029161FC
:10234000E1688847012F054618D1E069002820DAA6
:1023500026F020061DE0D8F8180000EB800005EB01
:1023600040003038C8F818002046E1688847054624
:1023700001F070F80028EED1012F0AD02E2D08D1DF
:102380002046E16888477F1C0546022F46F020065C
:10239000C4DBA069002803DA404246F00106A061D0
:1023A000F00701D026F010066C2D0BD0682D09D057
:1023B0004C2D39D06A2D35D0742D35D07A2D33D0AF
:1023C00016E038E0E1682F4620468847B8420546C7
:1023D00009D16C2F26D04FF48060E1680643204677
:1023E0008847054604E06C2F1AD04FF480700643EE
:1023F0000DB3A5F14100192802D8203546F4006636
:102400004A462946204626604E46FDF7CBFE80B15F
:1024100001280BD0F61D26F0070000F1080956E749
:102420004020E4E78020D8E70020D6E706F1040941
:102430004DE7284652E7206ABDE8F09F24200000BF
:1024400030B5B0F10A024FEA900E71F100034EEA86
:10245000817EB0EB0E0061EB91014FEA101E4EEA57
:10246000017E10EB0E0041EB11114FEA102E4EEAE7
:10247000016E10EB0E0041EB11214FEA104E4EEAB7
:10248000014E10EB0E0041EB1141401841F10001EB
:102490004FEAD00040EA41704FEAD10110EB8005CD
:1024A0004FEA810444EA907444EB01046D1944EB53
:1024B0000404521BA3414FF0000348BF0A3200D569
:1024C00030BD401C41F1000130BD2DE9F0470D4603
:1024D00099469246044600F124080168880604D50E
:1024E000E06921F01001216000E00120A84201DD37
:1024F000471B00E00027A1697A1902EB0900081ABE
:10250000A0612078C00602D42046FFF7D4FC002644
:1025100008E0D4E901211AF806009047206A401C1F
:10252000761C20624E45F4DB2078C0060AD5204692
:10253000FFF7C1FC06E0D4E9012130209047206A72
:10254000401C2062381EA7F10107F4DC07E0D4E943
:10255000012118F805009047206A401C2062281EBF
:10256000A5F10105F3DC2046FFF7BBFC207800064F
:1025700002D50220BDE8F0870120FBE770472DE976
:10258000FF4F0C461E464FF0FF378BB0D2E90001DB
:10259000DDF860800A908A46C1F30A5505B93D46C8
:1025A000002108464FF00000BAF1000F00F440008F
:1025B00005DA00EB80004FF4400101EA50004FEAD9
:1025C0009059B9F1010F00DDB9460A9850EA4A0066
:1025D0000ED044F61050A5F2FF3545432F14B8F144
:1025E000000F1ED07542291E1EDDC9F100021CE03D
:1025F000B8F1010F4FF0000001D0302103E0F243A9
:1026000005E02154401CB042FBDB30460022002193
:1026100021540B99C1F80880C1E900200FB0BDE832
:10262000F08FBD1B6D1CDEE74A4600DA694206A842
:1026300000F074FA06AB93E8070003AB83E80700E9
:1026400050460A9900F02AFB8DE80700A0F50050DB
:102650001F3800900398002D0ADD42F21F014A4600
:102660000844002303A90390684600F093FD09E0A5
:10267000A0F500504A461F38002303A9039068467E
:1026800000F09DFD8DE807000004000C03D04FF022
:10269000FF30410800E01046B8F1000F03D00022DF
:1026A000009215461EE0751E05D4FFF7C9FE3032B4
:1026B00062556D1EF9D5B3460122084302D00022AF
:1026C0007F1C04E02078302801D100227F1E002AE0
:1026D000099784D01DE0112D07DAFFF7B1FE3032E3
:1026E00062556D1C50EA0102F5D1084302D00098F2
:1026F000C8B10EE00021681E05E0235C625C6354F3
:102700002254401E491C8142F7DBAB46A81B401EE9
:102710000990002004F80B000B98099AC0F8088073
:10272000C0E9002B7AE711264FF0000857E72DE9A2
:10273000F04F88460446D21D22F0070191B0D1E93E
:102740000001CDE90A0100F071FE02460B98C00FAE
:1027500001D02D2007E02068810701D52B2002E061
:10276000202101EAC000032A099001D0072A05DBD5
:1027700003464146204600F091F90BE1207880069F
:1027800001D5E06900E00620B8F1650F814606D06A
:10279000B8F1660F18D0B8F1670F70D131E00020A2
:1027A000B9F1110F009001DB112301E009F10103E0
:1027B0000AAA01A90CA8FFF7E2FEDDE90C700026C9
:1027C00009F10105834647E001204B4600904FF098
:1027D00000470AAA01A90CA8FFF7D1FEDDE90DB058
:1027E0000C995D46002610B909F101000D18B9EBEE
:1027F000050003D4C0F1FF3609F10105A5EB09007E
:102800002BE0B9F1010F01DA4FF001090020B9F115
:10281000110F0090484601DD112300E003460AAA8B
:1028200001A90CA8FFF7ABFEDDE90C704D460026B0
:102830008346207800070AD4AB4500DA5D4601A83C
:10284000012D04DD411911F8011C302907D04F4535
:1028500002DA17F1040F04DA012082460FE06D1E40
:10286000EEE7002F02DCED1B3E4403E0781CA8429B
:1028700000DD7D1CB81B00F1010A4FF000472078F5
:10288000000703D4AA4501DB4FF0FF3A0021B7F15E
:10289000004F0DF143088DF8431024D002202B2364
:1028A000002F01DA7F422D230A21021EA0F1010030
:1028B00000DC5FB197FBF1FC97FBF1F201FB1C7CA4
:1028C00017460CF1300C08F801CDEEE7A8F1010035
:1028D00003702188090501D5452100E06521A0F19B
:1028E000010800F8011C09980FA9A1EB0807FF1DBA
:1028F00000B10120411901EBEA70A1693844081ABE
:10290000401EA0612078C00602D42046FFF7D3FA0B
:10291000099828B1D4E901219047206A401C20621F
:102920002078C00622D52046FFF7C5FA1EE0002E0B
:1029300004DBB34502DD01A8805D00E03020D4E96E
:1029400001219047206A401C2062761CAAF10100F8
:102950005FEA000A0AD100F09DF8C0680168405C97
:10296000D4E901219047206A401C2062281EA5F16D
:102970000105DCDC07E0D4E9012118F8010B9047E0
:10298000206A401C2062381EA7F10107F3DC2046B4
:10299000FFF7A7FA032011B041E610B5436913B160
:1029A000AFF3008001E0FFF7BFFA012010BD1278FD
:1029B00000F124010A7000224A700122EDE711683B
:1029C0004FF0FF32E9E710B5436913B1AFF3008070
:1029D00001E0FFF753FB012010BD128800F1240134
:1029E00082840022C2840122EDE711684FF0FF3299
:1029F000E9E7007B00F08000704770B516460C4692
:102A0000054600F03FF8036893F80101012806D05D
:102A1000FF2C0FD8185D68B101202C7070BDD3F861
:102A200007013246214603F2071303442846BDE856
:102A3000704018474FF0FF3070BD754600F0EAF85F
:102A4000AE4605006946534620F00700854618B09B
:102A500020B5FDF723FCBDE820404FF000064FF005
:102A600000074FF000084FF0000B21F00701AC46C3
:102A7000ACE8C009ACE8C009ACE8C009ACE8C009E2
:102A80008D46704710B500F005F8001D10BD00BF61
:102A9000010A000000487047A40200202DE9F0411F
:102AA0001F46044603260168072A01F4006004DB80
:102AB00008B116A505E016A503E008B115A500E0CC
:102AC00015A521F010002060A069C01EA0610FB103
:102AD000401EA0612046FFF7EEF94FB1D4E9012175
:102AE00038469047206A401C2062C01C206206E0E5
:102AF000206AFAE7D4E9012115F8010B9047761E08
:102B0000F8D22046FFF7EDF9BDE8F0814E414E00C6
:102B10006E616E00494E4600696E66002DE9F04711
:102B2000814616468AB0354878440DC88DE80D00B8
:102B300032487844801C03AC0DC884E80D0041F68F
:102B40009B300844372190FBF1F290FBF1F5A5F1A1
:102B5000800501FB12041B3C02D56442012000E009
:102B60000020DFF898A080460027FA44AAF1BE0AA8
:102B70000EE0E0070AD03246684607EB4701012322
:102B80000AEB810100F01BFB8DE8070064107F1C3D
:102B9000002CEED1194F7F44AE3F19E0E80715D065
:102BA00007EB04100DF1180A90E80E008AE80E00F9
:102BB000C068F04201D1981908903246012306A955
:102BC00003A800F0FCFA03AB83E807006D10641C57
:102BD000002DE3D14FF0010332466946B8F1000FF2
:102BE00003A802D000F0D6FA01E000F0E8FAC9E943
:102BF0000001C9F808200AB0BDE8F08754180000A9
:102C000010B50446AFF300802046BDE81040FDF744
:102C10002CBB000000487047840200204FF0013CAC
:102C200050F8042B51F8043B9A4221D1A2EB0C033B
:102C3000934313EACC1317D150F8042B51F8043BFB
:102C40009A4215D1A2EB0C03934313EACC130BD198
:102C500050F8042B51F8043B9A4209D1A2EB0C0323
:102C6000934313EACC13DBD04FF00000704700BF52
:102C7000D01A01BAB1FA81F101F0180122FA01F07B
:102C8000CB40C1F12001DBB2C0B2C01A2CFA01F373
:102C9000D11A914311EAC311E6D170475FEA400CA3
:102CA00008BF91F0000F4FEA8C234FEAC12243EA9C
:102CB00051514FEA1C5018BF00F5F0404FEA300068
:102CC00018BF41F000415FEA6C5C00F02980BCF164
:102CD000FF3F08BF40F080407047130C06BF12044E
:102CE0004FF0100C4FF0000C130E04BF12020CF149
:102CF000080C130F04BF12010CF1040C930F04BF56
:102D000092000CF1020CD30F04BF52000CF1010C25
:102D100011464FF00002A0F11F00A0EB0C0070471D
:102D200011F0004F08BF704731F000413FF4D5AFBC
:102D30000B0C06BF09044FF0100C4FF0000C0B0EEB
:102D400004BF09020CF1080C0B0F04BF09010CF1C0
:102D5000040C8B0F04BF89000CF1020CCB0F04BFD5
:102D600049000CF1010CCCF12003A0EB0C0022FA7D
:102D700003F302FA0CF241EA030100F1010070478B
:102D800020F07F4C80EA030023F07F47ACEB070381
:102D900003F57C5300F0004003F1FF032DE9804967
:102DA0004FEA154B09B44FEA144325EA0B4E24EAC7
:102DB00003480FF2042606EB132749083E785FEA22
:102DC000320203FB0667C7F5000707FB06F64FEA6A
:102DD00054374FEAD64606F1020607FB066CCCF1E3
:102DE000005C4FEA1C472CEA074C07FB06F40CFB7F
:102DF00006F504EB15464FEA961634BF00204FF057
:102E000000404FEAD13706FB07FC4FEA1C4C0CFB95
:102E10000BF7D21B03FB0CF761EB07010CFB0EF762
:102E2000B0EB074072EB17420CFB08F734BFA2EB84
:102E30000742B2EB074261EB17414FEA0C444FEAFD
:102E4000910706FB07FC4FEA1C4C0CFB0BF7B0EBA1
:102E5000C74072EB573203FB0CF734BFA2EBC742FB
:102E6000B2EBC74261EB57310CFB0EF7B0EBC7007A
:102E700072EB57720CFB08F734BFA2EBC702B2EB40
:102E8000C70261EB5771039F4FEA816141EA9211DA
:102E900004EBCC044FEAD1374FEA826206FB07FC11
:102EA00042EA90124FEA80604FEA1C4C0CFB0BF791
:102EB000D21B03FB0CF761EB07010CFB0EF7B0EB29
:102EC000074072EB17420CFB08F734BFA2EB074236
:102ED000B2EB074261EB17414FEA8C554FEA91077D
:102EE00004EB9C2406FB07FC4FEA1C4C0CFB0BF785
:102EF000B0EBC74072EB573203FB0CF734BFA2EBC9
:102F0000C742B2EBC74261EB57310CFB0EF7B0EB97
:102F1000C70072EB57720CFB08F734BFA2EBC70275
:102F2000B2EBC70261EB577115EB4C254FEA81619B
:102F300041EA92114FEA82624FEAD13742EA901297
:102F400006FB07FC44F100044FEA80604FEA1C4C8A
:102F50000CFB0BF7D21B03FB0CF761EB07010CFB1F
:102F60000EF7B0EB074072EB17420CFB08F734BFCB
:102F7000A2EB0742B2EB074261EB174115EB1C15C0
:102F80004FEA813141EA92414FEA823242EA90426D
:102F90004FEA80304FEA0C7644F1000448EA0343DC
:102FA0004EEA0B484FF0000EB2EB080C71EB030732
:102FB00024BF624639464EEB0E0E4FF0000B001850
:102FC000524149414BEB0B0BB2EB080C71EB030781
:102FD0007BF1000B24BF624639464EEB0E0E4FF0DC
:102FE000000B0018524149414BEB0B0BB2EB080CA4
:102FF00071EB03077BF1000B24BF624639464EEBB1
:103000000E0E51EA020718BF46F0010616EB0E76C7
:1030100055F1000254F1000103D5BDE88901BDE876
:103020000088BDE88901BDE80048B619524141EB6E
:103030000101A3F10103704780807F7E7D7C7B7A54
:103040007978777676757473727171706F6E6E6D54
:103050006C6C6B6A6A6968686766666564646363FA
:1030600062616160605F5F5E5E5D5D5C5C5B5B5A80
:103070005A595958585757565655555554545353ED
:1030800052525251515050504F4F4F4E4E4D4D4D48
:103090004C4C4C4B4B4B4A4A4A4949494848484793
:1030A00047474746464645454544444444434343D1
:1030B0004342424242414141002B9C4630D477007A
:1030C0002BD01CB54FEA370703B44FF010004FF078
:1030D0001001BAF1000F06D0BCF1000FDCBF40F0C8
:1030E000080040F008014FF000000FBCBDE81040A0
:1030F0000BF1010BBBF1010F08BF5FEA170722BFFD
:1031000012F1010211F101014FF0004143F10003FE
:1031100000F0004043EA00007047F9D35708D0E7B9
:1031200046EA064613F1400F4FEA16461FDD13F13B
:10313000200FDFBF16430A46002120335B42BED07A
:10314000C3F1200746EA064602FA07F74FEA164699
:1031500046EA0706C3F1200722FA03F201FA07F74D
:1031600021FA03F14FF0000342EA0702A7E746EA1B
:10317000020646EA06464FEA164646EA0106BCBF84
:1031800046EA0646360C4FF000034FF000024FF0BF
:10319000000194E72DE9804C9A46934670B491E87B
:1031A000380007C831EA400C48BF34EA430C03D565
:1031B000FFF7E6FDFFF780FFF0BCBDE8008C2DE9CE
:1031C000804C9A46934670B491E8380007C810F0D6
:1031D000804F08BF13F0804F03D100F005F8FFF7D0
:1031E0006BFFF0BCBDE8008C20F07F4780EA030055
:1031F00023F07F4C07EB0C03A3F57C5300F0004059
:10320000A3F1FE0392F0000F00F0B38095F0000FE1
:1032100000F077802DE901494FEA11404FEA14464A
:1032200021EA004800FB06FC24EA064708FB06F6F4
:1032300007FB08F800FB07F718EB06484CEB164CA9
:103240004FEA124B18EB07484FEA15464CEB174074
:1032500022EA0B4E0BFB06FC25EA06470EFB06F6A0
:1032600007FB0EFE0BFB07F71EEB064E4CEB164C56
:103270004FF000061EEB074E4CEB174B18EB0B08FC
:1032800040F1000018EB0E0B58EB000840F1000075
:103290008F1A4FF000013CBFC943661B14BFB5EB4A
:1032A000040C00213CBFC943F61B4FEA17444EEA09
:1032B0008E0E27EA04454FEA1C4704FB07622CEAFE
:1032C000074C05FB07F70CFB05F604FB0CFC16EBA3
:1032D000074642EB174216EB0C4642EB1C421BEB37
:1032E000060658EB0202414146EA9E0601D5BDE8BA
:1032F0000189B619524141EB0101A3F10103BDE877
:1033000001894FEA14454FEA114724EA054621EAAC
:10331000074C05FB07F406FB07F70CFB06F105FB62
:103320000CFC11EB074144EB17444FEA124711EB39
:103330000C4144EB1C4422EA074C05FB07F206FB58
:1033400007F70CFB06F605FB0CFC16EB074642EBF9
:10335000174216EB0C4642EB1C456A1854F100016B
:1033600048BF7047B619524141EB0101A3F1010377
:10337000704795F0000F37D04FEA11424FEA1447DB
:1033800021EA024624EA074C02FB07F106FB07F795
:103390000CFB06F402FB0CFC14EB074441EB174159
:1033A0004FEA154714EB0C4441EB1C4125EA074C4E
:1033B00002FB07F506FB07F70CFB06F602FB0CFC0D
:1033C00016EB074645EB174516EB0C4645EB1C4242
:1033D000121951F1000148BF7047B619524141EB33
:1033E0000101A3F1010370474FEA14454FEA114769
:1033F00024EA054621EA074C05FB07F106FB07F71F
:103400000CFB06F24FF0000605FB0CFC12EB07422A
:1034100041EB174112EB0C4251EB1C4148BF704786
:10342000921841EB0101A3F101037047490050EAF2
:10343000C12018BF04204A0D18BF40F0010040F21F
:10344000FF72B2EB515F08BF40F00200012808BFD5
:103450000520704730380A2801D20120704700202B
:103460007047000010B500290AD00878002807D05E
:1034700005487844FFF7D2FB002801D0002010BD9A
:103480000248784410BD0000460F00003E0F0000C7
:1034900010B500290AD00878002807D005487844DC
:1034A000FFF7BCFB002801D0002010BD0248784483
:1034B00010BD0000360F00002E0F000010B591EA7D
:1034C000030F48BF83F0004300F17283841A71EB4D
:1034D000030C05D2121943EB0C03001B61EB0C012A
:1034E000DFF824E14FEA1154A4EB135C1EEA430F0A
:1034F00018BF9EEA445F73D023EA0E03DCF1200E6E
:1035000021EA045143F4801332D322FA0CFE10EB6B
:103510000E0023FA0CFE41EB0E01CCF1200E03FA53
:103520000EFE10EB0E0051F10001B1F5801FCCF141
:10353000200E32D201EB045112FA0EF2BDE8104017
:1035400058BF7047401C38BF5FEA420218BF70473F
:10355000002814BF20F0010041F100014FEA4103AF
:1035600013F5001F38BF7047A1F1C04100F012BB36
:10357000012A43EB0302ACF1200CDCF11F0E32BF39
:103580004FF0000E23FA0CF310EB030041EB045153
:10359000B4EB115FD0D0A1EB045101F580114908C3
:1035A0005FEA300001EB04510ED350F1000038BF48
:1035B00012FA0EFE08D1BDE81040C9E7401C38BF22
:1035C0005FEA4202CAD1C3E7BDE810404FEA4103B7
:1035D00013F5001F38BF7047A1F1C04100F0DABAFF
:1035E0009EEA445F08D011EA5E0FBDE8104004BFB8
:1035F00001F0004100207047BDE8104070B500F0B8
:103600007BFA00BF64FBBE3E0000E0FF2DE9C04135
:1036100030B4DFF8A0C23CEA111418BF3CEA13141E
:1036200000F0EC8081EA03051CEA111444EAD57429
:1036300018BF1CEA131500F0C780A4EB05044FF077
:10364000004545EAC12145EAC32341EA505143EA16
:10365000525304F17F74994204F500344FEAC020BC
:103660004FEAC22208BF904200F09C804FEA1365E7
:103670000FF24016765D4FEA134506FB05F7C7F1DA
:10368000807706FB07F74FEAD737A7FB0368764238
:10369000C8F58038A7FB06CE38BFA8F1010807FBA4
:1036A00008E64FF0000EA6FB028CE6FB03CEDCF131
:1036B000000CCEF1004E38BFAEF1010EA6FB0C5847
:1036C0004FF000074FF00005E6FB0E87A1FB08C690
:1036D000A0FB07CE16EB0E0645F10005E1FB0765E2
:1036E00015F1E04E7EBFA4F580345FEA46066D41D9
:1036F00016F1800745F100054FEA17274FEA0666E5
:1037000047EA0567A6F1DE46B6F1805F4FEA152568
:103710001FD9384624F0010C05EBC471BCF1FE6FD3
:1037200001EB0C1102D8F0BCBDE8008124425CBF63
:1037300001F5801E9EEAC47F02D4F0BCBDE8008182
:10374000244238D4F0BCA1F1C041BDE8004100F0F2
:1037500021BA4FEAD22242EA43524FEAD323A7FBCF
:1037600002864FEAD02040EA415007FB03661EEA7A
:103770000E0F4FEAD12105FB026658BFA6EB00569B
:10378000B6EB00564FEA520E4EEAC37E18EB0E0E11
:1037900056EB530EBDD518EB02085E417F1C55F168
:1037A0000005B6E74FF480154FF000074FF0000614
:1037B0004FF00008ADE7F0BC4FF0000001F1C04150
:1037C00001F00041BDE8008111EA0C1F0CEA13155D
:1037D00000D00CE013EA0C1F00F025804FF0000031
:1037E000F0BC81EA030101F00041BDE80081F0BCBA
:1037F000BDE8004181EA030100F0CCB9F0BCBDE8AE
:10380000004170B500F078F9097EFC3E00F007B881
:1038100081EA03014FF0000001F00041704781EAA6
:10382000030100F0B7B9F0BCBDE800414FF0000063
:1038300021497047FFFDFBF9F7F5F4F2F0EEEDEBEF
:10384000E9E8E6E4E3E1E0DEDDDBDAD8D7D5D4D39E
:10385000D1D0CFCDCCCBCAC8C7C6C5C4C2C1C0BFEA
:10386000BEBDBCBBBAB9B8B7B6B5B4B3B2B1B0AFF0
:10387000AEADACABAAA9A8A8A7A6A5A4A3A3A2A1D4
:10388000A09F9F9E9D9C9C9B9A999998979796958F
:1038900095949393929191908F8F8E8E8D8C8C8B2B
:1038A0008B8A8989888887878685858484838382B3
:1038B000828181800000FF070000F87F4FEA41030A
:1038C0004FEA5353A3F58063D3F11E03C8BFD3F16E
:1038D000210C0CDD4FF0004242EAC12242EA505274
:1038E00032FA03FC8CEAE17CACEBE1707047102B00
:1038F000C4BF0020704703F5787CBCF1FF3F04D0C3
:103900006FF0004282EA2100704770B500F0F4F8D1
:103910004992248000207047F2E700004FEA1153DB
:10392000A3F58063D3F11E03A8BFD3F1200C08DBFD
:103930004FF0004242EAC12252EA505232FA03F0FA
:10394000704709420BD4102BC4BF0020704703F509
:10395000787CBCF1FF3F05D04FF0FF3070474FF04F
:103960000000704770B500F0C7F800BF499224808E
:1039700000207047F0E710F0004248BF4042B0FA24
:1039800080F310FA03F10AD0C3F11D0303F580633D
:103990004FEA415002EB035202EBD12170474FF046
:1039A00000007047DFF848C170B51CEA111E1EBF49
:1039B0001CEA13159EEA0C0F95EA0C0F00F06F80BD
:1039C00081EA030423EA4C134EEAD47E21EA4C1127
:1039D00041F4801143F48013AE44A1FB024CA0FBE0
:1039E0000365AEF17F7E361955EB0C05A1FB034C48
:1039F0004CF10003A0FB021C16EB0C06654153F1D1
:103A00000003094218BF46F0010613F4007F0BD1F2
:103A10004FEA03314FEA0530340341EA155140EAD9
:103A200016506FF003020AE04FEAC3214FEAC520A7
:103A3000F40241EA555140EA56506FF0020202EB9F
:103A40002E4201EB025585EACE710AD05FEA440CA2
:103A500018BF24F0004450F1000041F1000120EAB9
:103A6000D47040F2FE7C624500D270BDA84214BF03
:103A70004FF080444FF04044002E08BF0024BEF1B8
:103A8000806FA8BFA1F1C041BDE8704080F2828084
:103A90004FF0000001F1C04101F0004170479EEA83
:103AA0000C0F0CEA131518BF95EA0C0F06D04FF057
:103AB000000081EA030E0EF0004170BD00F01CF81A
:103AC0008900013E00F007B800F009B84FEA430C46
:103AD0005FEA5C5C08D081EA030100F05BB84FEA62
:103AE000410C5FEA5C5CF6D14FF000000149704781
:103AF0000000FF070000F87F0EF1020E2EF0030E0B
:103B00005EF8046B364205D4012A43EB030515F534
:103B1000001F12D8012841EB010C1CF5001F0CD826
:103B20000ED14FEAD17C15F5001F0CEB4C0C0CF1BB
:103B3000020C08BF4CEBD37C04E04FF0080C01E012
:103B40004FEAD37C0CEB4C0526FA05F606F0070687
:103B5000B6F1040C06D20EEB860CBDE870404CF0BA
:103B6000010C6047DFE80CF0090B02024FF0004146
:103B70004FF00000A1F5002170BD19461046012844
:103B800051EB010418BFD4F5001484BF002001F0EC
:103B9000004170BD0808A0F500114FEA31017047DF
:103BA00010B591EA030F48BF83F000433FF58EAC98
:103BB000841A71EB030C07D212198CF0004C43EB02
:103BC0000C03001B61EB0C01DFF8A4E14FEA115478
:103BD000A4EB135C1EEA430F18BF9EEA445F00F09B
:103BE000B08023EA6E03524221EA0451C3EB6E0314
:103BF00038BF5B1EDCF1200E25D322FA0CFE10EB41
:103C00000E0043FA0CFE41EB0E01CCF1200E03FA3C
:103C10000EFE10EB0E0051F10001CCF1200E29D464
:103C200012FA0EF201EB0451BDE8104058BF704784
:103C3000401C1CBFB2F1004F704700280CBF491C4C
:103C400020F00100704712EB020E43EB030218BF95
:103C50004FF0010E4EEA4202ACF1200CDCF11E0ED8
:103C600054D943FA0CFE10EB0E0051F1FF31CCF1A8
:103C70001E0ED5D50EF1010E12FA0EFE404141EB9B
:103C8000010101EB445C5FEA5C5C10D910EBDE7073
:103C900001EB045138BFBEF1004FBDE8104018BF22
:103CA000704700280CBF491C20F00100704730D23B
:103CB0004FEAD42C11F5001124F400641BD0B1FAA2
:103CC00081F20B3AA41AA41ED2F12003914030FADB
:103CD00003F31943904001EBCC71002C01EB04512C
:103CE000BDE81040A8BF704701F1C0414FF000008F
:103CF00001F000417047B0FA80F310FA03F100D1EF
:103D000010BDE41A173C4805C90AE4E701EB045169
:103D100010BD491001EB0451BDE810404FEA3000DE
:103D200002E04FF0000170474A0008BF0042F8D09F
:103D3000B2F5001F28BF704701F000414FF00000AE
:103D400070479EEA445F07D011EA5E0FBDE810405D
:103D500004BF002100207047BDE8104070B5FFF798
:103D6000CBFE00BF40DFF63E83F0004110467047B7
:103D70000000E0FF90EA010F48BF81F0004100F130
:103D80002E82421A3CBF801A89184FEAD0524FF057
:103D90007F4C1CEA410FA2EBD15318BF9CEA026F83
:103DA00000F03B804FF0004C4CEA00204CEA01212F
:103DB00021FA03FC10EB0C0C1ED202F1FF325FEA79
:103DC0001C2040EBC25038BF70471CF07F0F4FEAF9
:103DD000400C18BFBCF17F4F38BF7047C3F12003C0
:103DE000994008BF20F00100BCF17F4F38BF7047F9
:103DF000A0F1C04000F0DDB94FEA3C00000A40EB02
:103E0000C25028BF1CF0FF0F4FEA400CE6D018BF8D
:103E1000BCF17F4F38BF7047EAE79CEA026F05D0DC
:103E200010EA5C0F08BF00F00040704710B500F0CA
:103E30007AF900BF64FBBE3E4FF47F0C1CEAD0123F
:103E40001EBF1CEAD11392EA0C0F93EA0C0F00F08C
:103E5000858090EA010F48BF42F4807240F4000C64
:103E600041F400002CF07F4120F07F4000B58142FA
:103E7000A2EB03020FF2081CACEB504EC0F10000A5
:103E80009EF800E04FEA4E0E00FB0EFC38BF4900E2
:103E90004FEA2C1C02F5FA020CFB0EF34FEACE1E81
:103EA0004FEA112C4FEAC1210EEB635E42EB224236
:103EB0000EFB0CFC4FEA1C5300FB03114FEA112CC4
:103EC0004FEA01310EFB0CFC4FEADC4C00FB0C11FD
:103ED000C14228BF09184CEB03335DF804EB10EB2B
:103EE000410143EBC250B2F57C0F38BF704729D572
:103EF00012F0F00F1CBF00F1C04000F0004070470E
:103F0000008182838485868788898B8C8D8E8F91B2
:103F10009293959697999A9C9D9FA0A2A3A5A7A8D6
:103F2000AAACAEB0B2B3B5B7B9BCBEC0C2C5C7C902
:103F3000CCCED1D4D7D9DCDFE2E6E9ECF0F3F7FA66
:103F4000FE0000004FEA400C0CF1807CBCF17E4F7B
:103F500028BF7047B0F1C04000F02BB990EA010FC4
:103F60000CEAD11348BF42F48072624538BF634502
:103F700007D213F47F0F16D080EA010000F0004052
:103F8000704710B500F0CFF8097EFC3E00F005B890
:103F900080EA010000F00040704780EA010000F074
:103FA000004000F006B912F47F0F04BF02487047CA
:103FB00080EA010000F0FDB80000C07FC10DD1F122
:103FC0009E0206DB4FEA002343F0004323FA02F08F
:103FD0007047004207D54FEA4001B1F1FE4F02D2CF
:103FE0004FF00000704710B500F09DF84992248012
:103FF000002070476FEA200070470000B0FA80F39D
:1040000010FA03F2C3F19D030AD0D90501EB122087
:10401000530638BF704700F1010008BF20F00100CF
:10402000704700004FF47F0C1CEAD0121EBF1CEA40
:10403000D11392EA0C0F93EA0C0F00F0478090EA3C
:10404000010F48BF42F480724FF0004C4CEA002050
:104050004CEA012102EB0302A0FB0113A2F50002CE
:10406000002918BF43F001035B0028BF4FEA330368
:1040700042EB22425FEA132C4CEBC2502EBFBCEB4A
:10408000436FB2F57C0F70474FEA036CBCF1004FF1
:1040900008BF20F00100B2F57C0F38BF70470BD588
:1040A00082F0FF0212F5803FC8BF704700F1C040A8
:1040B000D8BF00F00040704700F5000C5FEA4C0CE0
:1040C00048BF7047B0F1C04000F073B890EA010FEC
:1040D0000CEAD11348BF42F48072624538BF634591
:1040E00004D280EA010000F00040704710B500F0F3
:1040F0001AF800BF8900013E00F007B800F009B8C7
:104100005FEA410C5FEA1C6C08D080EA010000F015
:1041100050B85FEA400C5FEA1C6CF6D14FF00040EB
:10412000A0F5800070470EF1020E2EF0030E5EF82F
:10413000044B244204D44FEA4102B2F17F4F11D81C
:104140004FEA4003B3F17F4F0CD80ED14FEAD07C39
:10415000B2F17F4F0CEB4C0C0CF1020C08BF4CEB96
:10416000D17C04E04FF0080C01E04FEAD17C0CEB6D
:104170004C0324FA03F404F00704B4F1040C06D24F
:104180000EEB840CBDE810404CF0010C6047DFE8FA
:104190000CF0070802024FF00040A0F5800010BDAF
:1041A0000846420018BFD2F1807288BF00F000407C
:1041B00010BDFF2141EAD050C005704780F000409B
:1041C00090EA010F7FF5DDAD81F0004100F007B806
:1041D00090EA010F48BF81F000413FF5D2AD421A8D
:1041E00004D882F00042A0EB020011444FEAD05202
:1041F0004FF07F4C1CEA410FA2EBD15318BF9CEA51
:10420000026F4AD04FF0004C4CEA00204CEA0121EA
:1042100021FA03FCB0EB0C0C0FD412F0FE0F36D0D9
:104220005FEA4C001DD5001240EBC25038BF70470A
:104230001CF03F0F18BF70470BE0A2F101025FEACC
:104240001C2040EBC25038BF70471CF07F0F18BFD6
:104250007047C3F12003994014BF401E20F00100B5
:10426000704780084FEA122308BF7047B0FA80FCFD
:10427000A2EB0C02CCF1280C60FA0CF093EA122F9E
:1042800004BF00EBC25070474FEAC3707047130A77
:104290005FEADC1008BF7047F6E79CEA026F04D0C3
:1042A00010EA5C0F08BF0020704710B5FFF73BFF16
:1042B00040DFF63E81F000407047FEF738BA00005C
:1042C0000000000000000000303132333435363752
:1042D000383941424344454640305800303132334A
:1042E000343536373839616263646566403078004A
:1042F00004000008000000000000000200010000AF
:104300001000000002400000000000A000000000BB
:1043100005400000000000C8000000000C40000044
:104320000000409C00000000194000000020BCBEBE
:104330000000000034400000BFC91B8E00000004D4
:10434000B5400000504BCFD06607E2CF010000001F
:104350006C4100003E8251AADFEEA734010000004C
:10436000D9420000DCB5A0E23A301F97FFFFFFFF03
:10437000B4450000FD25A0C8E9A3C14FFFFFFFFF22
:10438000FF3F00000000008000000000FF3F000031
:104390000000008000000000E4440008000000204D
:1043A000200000006C0100080445000820000020E7
:1043B000C8080000880100081C000000430000003D
:1043C000F8FFFFFF0C0000000E0000000F000000CF
:1043D0002E0000001001000043000000F8FFFFFF66
:1043E0000040404040404040404041414141414008
:1043F00040404040404040404040404040404040BD
:10440000400502020202020202020202020202024B
:104410000220202020202020202020020202020250
:1044200002029090909090901010101010101010A8
:1044300010101010101010101010101002020202B4
:1044400002028888888888880808080808080808F8
:1044500008080808080808080808080802020202F4
:10446000400000000000000000000000000000000C
:10447000000000000000000000000000000000003C
:10448000000000000000000000000000000000002C
:10449000000000000000000000000000000000001C
:1044A000000000000000000000000000000000000C
:1044B00000000000000000000000000000000000FC
:1044C00000000000000000000000000000000000EC
:1044D00000000000000000000000000000000000DC
:1044E00000000000000000000000000000000000CC
:1044F00000000000010000000000000000000000BB
:0445000000000000B7
:0400000508000131BD
:00000001FF
